A100000000001516232675757946568574480&OF1.31&                                                  
B10000000000251623267500000033120000100000014חס             0000000000000691173500000000000000000833053000Green Invoice Monthly Charge                      2022010120220101Green Invoice                 2USD+00000000004563+00000000000000+0000000000000000012800000000000000000120220224                                  
B10000000000351623267500000033120000200000014חס             0000000000000691173500000000000000000833053000Green Invoice Monthly Charge                      2022010120220101אחזקה                         1USD+00000000003900+00000000000000+0000000000000000000000000000000000000120220224                                  
B10000000000451623267500000033120000300000014חס             0000000000000691173500000000000000000833053000Green Invoice Monthly Charge                      2022010120220101תשו                           1USD+00000000000663+00000000000000+0000000000000000002520000000000000000120220224                                  
B10000000000551623267500000033140000400000014               0000000000000691173500000000000000000833053000Green Invoice Monthly Charge                      2022010120220101כא1074                        2USD+00000000004563+00000000000000+0000000000000000002420000000000000000120220224                                  
B10000000000651623267500000033140000500000014               0000000000000691173500000000000000000833053000Green Invoice Monthly Charge                      2022010120220101Green Invoice                 1USD+00000000004563+00000000000000+0000000000000000012800000000000000000120220224                                  
B10000000000751623267500000033160000600000014               0000000000000014102600000000000000001752386000Slack                                             2022010120220102כא1082                        2USD+00000000055296+00000000017780+0000000000000000002440000000000000000120220224                                  
B10000000000851623267500000033160000700000014               0000000000000014102600000000000000001752386000Slack                                             2022010120220102Slack                         1USD+00000000055296+00000000017780+0000000000000000013120000000000000000120220224                                  
B10000000000951623267500000033170000800000014               0000000000000014102600000000000000001752386000Slack                                             2022010120220102Slack                         2USD+00000000055296+00000000017780+0000000000000000013120000000000000000120220224                                  
B10000000001051623267500000033170000900000014               0000000000000014102600000000000000001752386000Slack                                             2022010120220102אתר                           1USD+00000000055296+00000000017780+0000000000000000000000000000000000000120220224                                  
B10000000001151623267500000033180001000000014               0000000000000005528900000000000000392760005000Infrastructure Hosting                            2022010120220103Pulumi Comporat               2USD+00000000002569+00000000000831+0000000000000000013050000000000000000120220224                                  
B10000000001251623267500000033180001100000014               0000000000000005528900000000000000392760005000Infrastructure Hosting                            2022010120220103אתר                           1USD+00000000002569+00000000000831+0000000000000000000000000000000000000120220224                                  
B10000000001351623267500000033190001200000014               0000000000000005414300000000000000040584664000G Suite for The Guild                             2022010120220103כא1074                        2EUR+00000000002646+00000000000754+0000000000000000002330000000000000000120220224                                  
B10000000001451623267500000033190001300000014               0000000000000005414300000000000000040584664000G Suite for The Guild                             2022010120220103Google Ireland                1EUR+00000000002646+00000000000754+0000000000000000012780000000000000000120220224                                  
B10000000001551623267500000033200001400000014               0000000000000005526000000000000000000030019000Infrastructure                                    2022010120220103כא1074                        2USD+00000000078565+00000000025409+0000000000000000002360000000000000000120220224                                  
B10000000001651623267500000033200001500000014               0000000000000005526000000000000000000030019000Infrastructure                                    2022010120220103Microsoft Azure               1USD+00000000078565+00000000025409+0000000000000000012980000000000000000120220224                                  
B10000000001751623267500000033210001600000014               0000000000000005528900000000000000392760005000Infrastructure Hosting                            2022010120220103כא1074                        2USD+00000000002569+00000000000831+0000000000000000002360000000000000000120220224                                  
B10000000001851623267500000033210001700000014               0000000000000005528900000000000000392760005000Infrastructure Hosting                            2022010120220103Pulumi Comporat               1USD+00000000002569+00000000000831+0000000000000000013050000000000000000120220224                                  
B10000000001951623267500000033220001800000014               0000000000000000107400000000000000000000000000Creditcard charge                                 2022010220220102עוש                           2USD+00000000033710+00000000000000+0000000000000000000000000000209000000120220224                                  
B10000000002051623267500000033220001900000014               0000000000000000107400000000000000000000000000Creditcard charge                                 2022010220220102כא1074                        1USD+00000000033710+00000000000000+0000000000000000002320000000000000000120220224                                  
B10000000002151623267500000033230002000000014               0000000000000000108200000000000000000000000000Creditcard charge                                 2022010220220102עוש                           2USD+00000000018960+00000000000000+0000000000000000000000000000209000000120220224                                  
B10000000002251623267500000033230002100000014               0000000000000000108200000000000000000000000000Creditcard charge                                 2022010220220102כא1082                        1USD+00000000018960+00000000000000+0000000000000000002430000000000000000120220224                                  
B10000000002351623267500000033240002200000014               0000000000000000107400000000000000000000000000Creditcard charge                                 2022010320220103עוש2                          2EUR+00000000002646+00000000000754+0000000000000000000000000000230000000120220224                                  
B10000000002451623267500000033240002300000014               0000000000000000107400000000000000000000000000Creditcard charge                                 2022010320220103כא1074                        1EUR+00000000002646+00000000000754+0000000000000000002330000000000000000120220224                                  
B10000000002551623267500000033250002400000014               0000000000000000108200000000000000000000000000Creditcard charge                                 2022010220220102עוש1                          2USD+00000000055296+00000000017780+0000000000000000000000000000229000000120220224                                  
B10000000002651623267500000033250002500000014               0000000000000000108200000000000000000000000000Creditcard charge                                 2022010220220102כא1082                        1USD+00000000055296+00000000017780+0000000000000000002440000000000000000120220224                                  
B10000000002751623267500000033260002600000014               0000000000000014570100000000000000314100009000Hosting                                           2022010320220105Render                        2USD+00000000003245+00000000001049+0000000000000000013080000000000000000120220224                                  
B10000000002851623267500000033260002700000014               0000000000000014570100000000000000314100009000Hosting                                           2022010320220105אתר                           1USD+00000000003245+00000000001049+0000000000000000000000000000000000000120220224                                  
B10000000002951623267500000033270002800000014               0000000000000000107400000000000000000000000000Creditcard charge                                 2022010320220103עוש1                          2USD+00000000081134+00000000026240+0000000000000000000000000000229000000120220224                                  
B10000000003051623267500000033270002900000014               0000000000000000107400000000000000000000000000Creditcard charge                                 2022010320220103כא1074                        1USD+00000000081134+00000000026240+0000000000000000002360000000000000000120220224                                  
B10000000003151623267500000033280003000000014               0000000000000014570100000000000000314100009000Hosting                                           2022010320220105כא1074                        2USD+00000000003245+00000000001049+0000000000000000002340000000000000000120220224                                  
B10000000003251623267500000033280003100000014               0000000000000014570100000000000000314100009000Hosting                                           2022010320220105Render                        1USD+00000000003245+00000000001049+0000000000000000013080000000000000000120220224                                  
B10000000003351623267500000033290003200000014               0000000000000014571000000000000000509510009000Vercel Hosting                                    2022010320220105Vercel Inc.                   2USD+00000000049488+00000000016000+0000000000000000013200000000000000000120220224                                  
B10000000003451623267500000033290003300000014               0000000000000014571000000000000000509510009000Vercel Hosting                                    2022010320220105אתר                           1USD+00000000049488+00000000016000+0000000000000000000000000000000000000120220224                                  
B10000000003551623267500000033300003400000014               0000000000000001873200000000000000000000004000December Development                              2022010220220102Saihajpreet Sin               2USD+00000001536340+00000000494000+0000000000000000013100000000000000000120220224                                  
B10000000003651623267500000033300003500000014               0000000000000001873200000000000000000000004000December Development                              2022010220220102פיתוח                         1USD+00000001536340+00000000494000+0000000000000000000000000000000000000120220224                                  
B10000000003751623267500000033310003600000014               0000000000000014571000000000000000509510009000Vercel Hosting                                    2022010320220105כא1082                        2USD+00000000049488+00000000016000+0000000000000000002440000000000000000120220224                                  
B10000000003851623267500000033310003700000014               0000000000000014571000000000000000509510009000Vercel Hosting                                    2022010320220105Vercel Inc.                   1USD+00000000049488+00000000016000+0000000000000000013200000000000000000120220224                                  
B10000000003951623267500000033320003800000014               0000000000000000122100000000000000000000000000Fees for bank_reference=1221                      2022010420220104עוש                           2USD+00000000007300+00000000000000+0000000000000000000000000000210000000120220224                                  
B10000000004051623267500000033320003900000014               0000000000000000122100000000000000000000000000Fees for bank_reference=1221                      2022010420220104עמל                           1USD+00000000007300+00000000000000+0000000000000000000000000000000000000120220224                                  
B10000000004151623267500000033330004000000014               0000000000000001873200000000000000000000004000December Development                              2022010220220104שער                           2USD+00000000007904+00000000000000+0000000000000000000000000000000000000120220224                                  
B10000000004251623267500000033330004100000014               0000000000000001873200000000000000000000004000December Development                              2022010220220104Saihajpreet Sin               1USD+00000000007904+00000000000000+0000000000000000013100000000000000000120220224                                  
B10000000004351623267500000033340004200000014               0000000000000000122100000000000000000000000000Fees for bank_reference=1221                      2022010420220104עוש                           2USD+00000000003289+00000000000000+0000000000000000000000000000210000000120220224                                  
B10000000004451623267500000033340004300000014               0000000000000000122100000000000000000000000000Fees for bank_reference=1221                      2022010420220104עמל                           1USD+00000000003289+00000000000000+0000000000000000000000000000000000000120220224                                  
B10000000004551623267500000033350004400000014               0000000000000007197200000000000000000195665000Monthly Crisp                                     2022010420220106כא1074                        2USD+00000000020675+00000000006650+0000000000000000002350000000000000000120220224                                  
B10000000004651623267500000033350004500000014               0000000000000007197200000000000000000195665000Monthly Crisp                                     2022010420220106Crisp IM SARL                 1USD+00000000020675+00000000006650+0000000000000000012620000000000000000120220224                                  
B10000000004751623267500000033360004600000014               0000000000000007197200000000000000000195665000Monthly Crisp                                     2022010420220106Crisp IM SARL                 2USD+00000000020675+00000000006650+0000000000000000012620000000000000000120220224                                  
B10000000004851623267500000033360004700000014               0000000000000007197200000000000000000195665000Monthly Crisp                                     2022010420220106אתר                           1USD+00000000020675+00000000006650+0000000000000000000000000000000000000120220224                                  
B10000000004951623267500000033370004800000014               0000000000000001873200000000000000000000000000Fees for bank_reference=18732                     2022010420220104עוש                           2USD+00000000009381+00000000000000+0000000000000000000000000000211000000120220224                                  
B10000000005051623267500000033370004900000014               0000000000000001873200000000000000000000000000Fees for bank_reference=18732                     2022010420220104עמל                           1USD+00000000009381+00000000000000+0000000000000000000000000000000000000120220224                                  
B10000000005151623267500000033380005000000014               0000000000051073699300000000000000000000000000Fees for bank_reference=2685510736993             2022010520220105עוש                           2USD+00000000000405+00000000000000+0000000000000000000000000000211000000120220224                                  
B10000000005251623267500000033380005100000014               0000000000051073699300000000000000000000000000Fees for bank_reference=2685510736993             2022010520220105עמל                           1USD+00000000000405+00000000000000+0000000000000000000000000000000000000120220224                                  
B10000000005351623267500000033390005200000014               0000000000051073699300000000000000000000000000Pension and training funds                        2022010520220105פניקסהש                       1USD+00000000439800+00000000000000+0000000000000000013420000000000000000120220224                                  
B10000000005451623267500000033400005300000014               0000000000000000108200000000000000000000000000Creditcard charge                                 2022010520220105עוש1                          2USD+00000000049488+00000000016000+0000000000000000000000000000229000000120220224                                  
B10000000005551623267500000033400005400000014               0000000000000000108200000000000000000000000000Creditcard charge                                 2022010520220105כא1082                        1USD+00000000049488+00000000016000+0000000000000000002440000000000000000120220224                                  
B10000000005651623267500000033410005500000014               0000000000051073699300000000000000000000000000Pension and training funds                        2022010520220105איילוןפ                       1USD+00000000632600+00000000000000+0000000000000000013360000000000000000120220224                                  
B10000000005751623267500000033420005600000014               0000000000051073699300000000000000000000000000Pension and training funds                        2022010520220105עוש                           2USD+00000001399900+00000000000000+0000000000000000000000000000212000000120220224                                  
B10000000005851623267500000033430005700000014               0000000000051073699300000000000000000000000000Pension and training funds                        2022010520220105מנורהפנ                       1USD+00000000327500+00000000000000+0000000000000000013410000000000000000120220224                                  
B10000000005951623267500000033440005800000014               0000000000000000107400000000000000000000000000Creditcard charge                                 2022010520220105עוש1                          2USD+00000000003245+00000000001049+0000000000000000000000000000229000000120220224                                  
B10000000006051623267500000033440005900000014               0000000000000000107400000000000000000000000000Creditcard charge                                 2022010520220105כא1074                        1USD+00000000003245+00000000001049+0000000000000000002340000000000000000120220224                                  
B10000000006151623267500000033450006000000014               0000000000000001873200000000000000000000004000December Development                              2022010420220104עוש1                          2USD+00000001528436+00000000494000+0000000000000000000000000000229000000120220224                                  
B10000000006251623267500000033450006100000014               0000000000000001873200000000000000000000004000December Development                              2022010420220104Saihajpreet Sin               1USD+00000001528436+00000000494000+0000000000000000013100000000000000000120220224                                  
B10000000006351623267500000033460006200000014               0000000000000007556800000000000000013378922000ALTINITY DB Hosting                               2022010520220107כא1074                        2USD+00000000095561+00000000030737+0000000000000000002370000000000000000120220224                                  
B10000000006451623267500000033460006300000014               0000000000000007556800000000000000013378922000ALTINITY DB Hosting                               2022010520220107Altinity Inc                  1USD+00000000095561+00000000030737+0000000000000000009280000000000000000120220224                                  
B10000000006551623267500000033470006400000014               0000000000000700100200000000000000000099970000Guild stickers for office                         2022010620220106כא1074                        2USD+00000000009400+00000000000000+0000000000000000002420000000000000000120220224                                  
B10000000006651623267500000033470006500000014               0000000000000700100200000000000000000099970000Guild stickers for office                         2022010620220106דטה פרינט בעמ                 1USD+00000000009400+00000000000000+0000000000000000013280000000000000000120220224                                  
B10000000006751623267500000033480006600000014               0000000000000007556800000000000000013378922000ALTINITY DB Hosting                               2022010520220107Altinity Inc                  2USD+00000000095561+00000000030737+0000000000000000009280000000000000000120220224                                  
B10000000006851623267500000033480006700000014               0000000000000007556800000000000000013378922000ALTINITY DB Hosting                               2022010520220107אתר                           1USD+00000000095561+00000000030737+0000000000000000000000000000000000000120220224                                  
B10000000006951623267500000033490006800000014               0000000000000006441100000000000000000000000000Fees for bank_reference=64411                     2022010620220106עוש                           2USD+00000000001025+00000000000000+0000000000000000000000000000213000000120220224                                  
B10000000007051623267500000033490006900000014               0000000000000006441100000000000000000000000000Fees for bank_reference=64411                     2022010620220106עמל                           1USD+00000000001025+00000000000000+0000000000000000000000000000000000000120220224                                  
B10000000007151623267500000033500007000000014               0000000000000000107400000000000000000000000000Creditcard charge                                 2022010620220106עוש1                          2USD+00000000020675+00000000006650+0000000000000000000000000000229000000120220224                                  
B10000000007251623267500000033500007100000014               0000000000000000107400000000000000000000000000Creditcard charge                                 2022010620220106כא1074                        1USD+00000000020675+00000000006650+0000000000000000002350000000000000000120220224                                  
B10000000007351623267500000033510007200000014               0000000000000006441100000000000000000000000000December salary                                   2022010620220106עוש                           2USD+00000001067400+00000000000000+0000000000000000000000000000214000000120220224                                  
B10000000007451623267500000033510007300000014               0000000000000006441100000000000000000000000000December salary                                   2022010620220106DotanEm                       1USD+00000001067400+00000000000000+0000000000000000000000000000000000000120220224                                  
B10000000007551623267500000033520007400000014               0000000000000006420100000000000000000000000000December salary                                   2022010620220106עוש                           2USD+00000001067400+00000000000000+0000000000000000000000000000214000000120220224                                  
B10000000007651623267500000033520007500000014               0000000000000006420100000000000000000000000000December salary                                   2022010620220106UriEm                         1USD+00000001067400+00000000000000+0000000000000000000000000000000000000120220224                                  
B10000000007751623267500000033530007600000014               0000000000000006453400000000000000000000000000December salary                                   2022010620220106עוש                           2USD+00000001108100+00000000000000+0000000000000000000000000000214000000120220224                                  
B10000000007851623267500000033530007700000014               0000000000000006453400000000000000000000000000December salary                                   2022010620220106GilEm                         1USD+00000001108100+00000000000000+0000000000000000000000000000000000000120220224                                  
B10000000007951623267500000033540007800000014               0000000000000006420100000000000000000000000000Fees for bank_reference=64201                     2022010620220106עוש                           2USD+00000000000255+00000000000000+0000000000000000000000000000215000000120220224                                  
B10000000008051623267500000033540007900000014               0000000000000006420100000000000000000000000000Fees for bank_reference=64201                     2022010620220106עמל                           1USD+00000000000255+00000000000000+0000000000000000000000000000000000000120220224                                  
B10000000008151623267500000033550008000000014               0000000000000006453400000000000000000000000000Fees for bank_reference=64534                     2022010620220106עוש                           2USD+00000000000255+00000000000000+0000000000000000000000000000215000000120220224                                  
B10000000008251623267500000033550008100000014               0000000000000006453400000000000000000000000000Fees for bank_reference=64534                     2022010620220106עמל                           1USD+00000000000255+00000000000000+0000000000000000000000000000000000000120220224                                  
B10000000008351623267500000033560008200000014חס             0000000000000700100200000000000000000099970000Guild stickers for office                         2022010620220106דטה פרינט בעמ                 2USD+00000000009400+00000000000000+0000000000000000013280000000000000000120220224                                  
B10000000008451623267500000033560008300000014חס             0000000000000700100200000000000000000099970000Guild stickers for office                         2022010620220106משרד                          1USD+00000000008034+00000000000000+0000000000000000000000000000000000000120220224                                  
B10000000008551623267500000033560008400000014חס             0000000000000700100200000000000000000099970000Guild stickers for office                         2022010620220106תשו                           1USD+00000000001366+00000000000000+0000000000000000002520000000000000000120220224                                  
B10000000008651623267500000033570008500000014               0000000000000001889800000000000000000012022000December Invoice                                  2022010520220105Jelly JS Kamil                2EUR+00000002798080+00000000800000+0000000000000000012880000000000000000120220224                                  
B10000000008751623267500000033570008600000014               0000000000000001889800000000000000000012022000December Invoice                                  2022010520220105פיתוח                         1EUR+00000002798080+00000000800000+0000000000000000000000000000000000000120220224                                  
B10000000008851623267500000033580008700000014               0000000000000006465800000000000000000000000000December Salary                                   2022010620220106עוש                           2USD+00000001043800+00000000000000+0000000000000000000000000000214000000120220224                                  
B10000000008951623267500000033580008800000014               0000000000000006465800000000000000000000000000December Salary                                   2022010620220106GiladEm                       1USD+00000001043800+00000000000000+0000000000000000000000000000000000000120220224                                  
B10000000009051623267500000033590008900000014               0000000000000006465800000000000000000000000000Fees for bank_reference=64658                     2022010620220106עוש                           2USD+00000000001025+00000000000000+0000000000000000000000000000215000000120220224                                  
B10000000009151623267500000033590009000000014               0000000000000006465800000000000000000000000000Fees for bank_reference=64658                     2022010620220106עמל                           1USD+00000000001025+00000000000000+0000000000000000000000000000000000000120220224                                  
B10000000009251623267500000033600009100000014               0000000000000001889800000000000000000012022000December Invoice                                  2022010520220107שער                           2USD-00000000015520+00000000000000+0000000000000000000000000000000000000120220224                                  
B10000000009351623267500000033600009200000014               0000000000000001889800000000000000000012022000December Invoice                                  2022010520220107Jelly JS Kamil                1USD-00000000015520+00000000000000+0000000000000000012880000000000000000120220224                                  
B10000000009451623267500000033610009300000014               0000000000000001889800000000000000000012022000December Invoice                                  2022010720220107עוש2                          2EUR+00000002813600+00000000800000+0000000000000000000000000000230000000120220224                                  
B10000000009551623267500000033610009400000014               0000000000000001889800000000000000000012022000December Invoice                                  2022010720220107Jelly JS Kamil                1EUR+00000002813600+00000000800000+0000000000000000012880000000000000000120220224                                  
B10000000009651623267500000033620009500000014               0000000000000000107400000000000000000000000000Creditcard charge                                 2022010720220107עוש1                          2USD+00000000095561+00000000030737+0000000000000000000000000000229000000120220224                                  
B10000000009751623267500000033620009600000014               0000000000000000107400000000000000000000000000Creditcard charge                                 2022010720220107כא1074                        1USD+00000000095561+00000000030737+0000000000000000002370000000000000000120220224                                  
B10000000009851623267500000033630009700000014               0000000000000001889800000000000000000000000000Fees for bank_reference=18898                     2022010720220107עוש                           2USD+00000000009444+00000000000000+0000000000000000000000000000216000000120220224                                  
B10000000009951623267500000033630009800000014               0000000000000001889800000000000000000000000000Fees for bank_reference=18898                     2022010720220107עמל                           1USD+00000000009444+00000000000000+0000000000000000000000000000000000000120220224                                  
B10000000010051623267500000033640009900000014               0000000000000004570300000000000000967577126000Arda gift                                         2022010820220110Amazon.com                    2USD+00000000234040+00000000075109+0000000000000000012490000000000000000120220224                                  
B10000000010151623267500000033640010000000014               0000000000000004570300000000000000967577126000Arda gift                                         2022010820220110אחזקת מחשב                    1USD+00000000234040+00000000075109+0000000000000000000000000000000000000120220224                                  
B10000000010251623267500000033650010100000014               0000000000000006981400000000000000000000138000Notion monthly charge                             2022010720220109כא1082                        2USD+00000000047036+00000000015129+0000000000000000002450000000000000000120220224                                  
B10000000010351623267500000033650010200000014               0000000000000006981400000000000000000000138000Notion monthly charge                             2022010720220109Notion Labs, In               1USD+00000000047036+00000000015129+0000000000000000013000000000000000000120220224                                  
B10000000010451623267500000033660010300000014               0000000000000004570300000000000000967577126000Arda gift                                         2022010820220110כא1082                        2USD+00000000234040+00000000075109+0000000000000000002460000000000000000120220224                                  
B10000000010551623267500000033660010400000014               0000000000000004570300000000000000967577126000Arda gift                                         2022010820220110Amazon.com                    1USD+00000000234040+00000000075109+0000000000000000012490000000000000000120220224                                  
B10000000010651623267500000033670010500000014               0000000000000006981400000000000000000000138000Notion monthly charge                             2022010720220109Notion Labs, In               2USD+00000000047036+00000000015129+0000000000000000013000000000000000000120220224                                  
B10000000010751623267500000033670010600000014               0000000000000006981400000000000000000000138000Notion monthly charge                             2022010720220109אתר                           1USD+00000000047036+00000000015129+0000000000000000000000000000000000000120220224                                  
B10000000010851623267500000033680010700000014               0000000000000000108200000000000000000000000000Creditcard charge                                 2022011020220110עוש1                          2USD+00000000234040+00000000075109+0000000000000000000000000000229000000120220224                                  
B10000000010951623267500000033680010800000014               0000000000000000108200000000000000000000000000Creditcard charge                                 2022011020220110כא1082                        1USD+00000000234040+00000000075109+0000000000000000002460000000000000000120220224                                  
B10000000011051623267500000033690010900000014חס             0000000000000500102300000000000000000002766000Invoice Management Software                       2022011020220110Payper                        2USD+00000000011799+00000000000000+0000000000000000013020000000000000000120220224                                  
B10000000011151623267500000033690011000000014חס             0000000000000500102300000000000000000002766000Invoice Management Software                       2022011020220110אחזקה                         1USD+00000000010085+00000000000000+0000000000000000000000000000000000000120220224                                  
B10000000011251623267500000033690011100000014חס             0000000000000500102300000000000000000002766000Invoice Management Software                       2022011020220110תשו                           1USD+00000000001714+00000000000000+0000000000000000002520000000000000000120220224                                  
B10000000011351623267500000033700011200000014               0000000000000001002100000000000000000000000000Fees for bank_reference=10021                     2022011020220110עוש                           2USD+00000000009327+00000000000000+0000000000000000000000000000216000000120220224                                  
B10000000011451623267500000033700011300000014               0000000000000001002100000000000000000000000000Fees for bank_reference=10021                     2022011020220110עמל                           1USD+00000000009327+00000000000000+0000000000000000000000000000000000000120220224                                  
B10000000011551623267500000033710011400000014הכפ            000000000000000600370000000000000000001002100015.11-15.12 Last Payment 15.12-31.12 Full Payment 2022011020220110הכנפט                         2USD+00000015580000+00000005000000+0000000000000000000000000000000000000120220224                                  
B10000000011651623267500000033710011500000014הכפ            000000000000000600370000000000000000001002100015.11-15.12 Last Payment 15.12-31.12 Full Payment 2022011020220110Dalet Digital M               1USD+00000015580000+00000005000000+0000000000000000000000000000000000000120220224                                  
B10000000011751623267500000033720011600000014               0000000000000500102300000000000000000002766000Invoice Management Software                       2022011020220110כא1082                        2USD+00000000011799+00000000000000+0000000000000000002490000000000000000120220224                                  
B10000000011851623267500000033720011700000014               0000000000000500102300000000000000000002766000Invoice Management Software                       2022011020220110Payper                        1USD+00000000011799+00000000000000+0000000000000000013020000000000000000120220224                                  
B10000000011951623267500000033730011800000014               000000000000000600370000000000000000001002100015.11-15.12 Last Payment 15.12-31.12 Full Payment 2022011020220110Dalet Digital M               2USD+00000015580000+00000005000000+0000000000000000000000000000000000000120220224                                  
B10000000012051623267500000033730011900000014               000000000000000600370000000000000000001002100015.11-15.12 Last Payment 15.12-31.12 Full Payment 2022011020220110עוש1                          1USD+00000015580000+00000005000000+0000000000000000000000000000229000000120220224                                  
B10000000012151623267500000033740012000000014               0000000000000000108200000000000000000000000000Creditcard charge                                 2022010920220109עוש1                          2USD+00000000047036+00000000015129+0000000000000000000000000000229000000120220224                                  
B10000000012251623267500000033740012100000014               0000000000000000108200000000000000000000000000Creditcard charge                                 2022010920220109כא1082                        1USD+00000000047036+00000000015129+0000000000000000002450000000000000000120220224                                  
B10000000012351623267500000033750012200000014               0000000000000001000100000000000000000000661000Office rent                                       2022011020220110עוש                           2USD+00000000432900+00000000000000+0000000000000000000000000000217000000120220224                                  
B10000000012451623267500000033750012300000014               0000000000000001000100000000000000000000661000Office rent                                       2022011020220110Avi Peretz                    1USD+00000000432900+00000000000000+0000000000000000012520000000000000000120220224                                  
B10000000012551623267500000033760012400000014               0000000000001100153800000000000000000000000000Tax for employees for 11-12/2021                  2022011120220111עוש                           2USD+00000000958300+00000000000000+0000000000000000000000000000219000000120220224                                  
B10000000012651623267500000033760012500000014               0000000000001100153800000000000000000000000000Tax for employees for 11-12/2021                  2022011120220111מהני                          1USD+00000000958300+00000000000000+0000000000000000013340000000000000000120220224                                  
B10000000012751623267500000033770012600000014               0000000000000014516500000000000000060128778000accounter DB                                      2022010120220113Heroku                        2USD+00000000015585+00000000005000+0000000000000000012850000000000000000120220224                                  
B10000000012851623267500000033770012700000014               0000000000000014516500000000000000060128778000accounter DB                                      2022010120220113אתר                           1USD+00000000015585+00000000005000+0000000000000000000000000000000000000120220224                                  
B10000000012951623267500000033780012800000014חס             0000000000000001000100000000000000000000661000Office rent                                       2022011820220118Avi Peretz                    2USD+00000000432900+00000000000000+0000000000000000012520000000000000000120220224                                  
B10000000013051623267500000033780012900000014חס             0000000000000001000100000000000000000000661000Office rent                                       2022011820220118שכר דירה                      1USD+00000000370000+00000000000000+0000000000000000000000000000000000000120220224                                  
B10000000013151623267500000033780013000000014חס             0000000000000001000100000000000000000000661000Office rent                                       2022011820220118תשו                           1USD+00000000062900+00000000000000+0000000000000000002520000000000000000120220224                                  
B10000000013251623267500000033790013100000014               0000000000001100150400000000000000000000000000Social Security for 12/2021 salaries              2022011120220111עוש                           2USD+00000000779100+00000000000000+0000000000000000000000000000218000000120220224                                  
B10000000013351623267500000033790013200000014               0000000000001100150400000000000000000000000000Social Security for 12/2021 salaries              2022011120220111בלני                          1USD+00000000779100+00000000000000+0000000000000000013690000000000000000120220224                                  
B10000000013451623267500000033800013300000014               0000000000000007623400000000000000037431551000GitHub Actions                                    2022011120220113כא1074                        2USD+00000000016208+00000000005200+0000000000000000002380000000000000000120220224                                  
B10000000013551623267500000033800013400000014               0000000000000007623400000000000000037431551000GitHub Actions                                    2022011120220113GitHub                        1USD+00000000016208+00000000005200+0000000000000000012750000000000000000120220224                                  
B10000000013651623267500000033810013500000014               0000000000000007623400000000000000037431551000GitHub Actions                                    2022011120220113GitHub                        2USD+00000000016208+00000000005200+0000000000000000012750000000000000000120220224                                  
B10000000013751623267500000033810013600000014               0000000000000007623400000000000000037431551000GitHub Actions                                    2022011120220113אתר                           1USD+00000000016208+00000000005200+0000000000000000000000000000000000000120220224                                  
B10000000013851623267500000033820013700000014               0000000000000014516500000000000000060128778000accounter DB                                      2022011120220113כא1082                        2USD+00000000015585+00000000005000+0000000000000000002470000000000000000120220224                                  
B10000000013951623267500000033820013800000014               0000000000000014516500000000000000060128778000accounter DB                                      2022011120220113Heroku                        1USD+00000000015585+00000000005000+0000000000000000012850000000000000000120220224                                  
B10000000014051623267500000033830013900000014               0000000000000001889800000000000000000000000000Fees for bank_reference=18898                     2022011220220112עוש2                          2EUR+00000000003536+00000000001000+0000000000000000000000000000230000000120220224                                  
B10000000014151623267500000033830014000000014               0000000000000001889800000000000000000000000000Fees for bank_reference=18898                     2022011220220112עמל                           1EUR+00000000003536+00000000001000+0000000000000000000000000000000000000120220224                                  
B10000000014251623267500000033840014100000014               0000000000000001889800000000000000000000000000Fees for bank_reference=18898                     2022011320220113עוש2                          2EUR+00000000006268+00000000001755+0000000000000000000000000000230000000120220224                                  
B10000000014351623267500000033840014200000014               0000000000000001889800000000000000000000000000Fees for bank_reference=18898                     2022011320220113עמל                           1EUR+00000000006268+00000000001755+0000000000000000000000000000000000000120220224                                  
B10000000014451623267500000033850014300000014               0000000000000000108200000000000000000000000000Creditcard charge                                 2022011320220113עוש1                          2USD+00000000015585+00000000005000+0000000000000000000000000000229000000120220224                                  
B10000000014551623267500000033850014400000014               0000000000000000108200000000000000000000000000Creditcard charge                                 2022011320220113כא1082                        1USD+00000000015585+00000000005000+0000000000000000002470000000000000000120220224                                  
B10000000014651623267500000033860014500000014               0000000000000000107400000000000000000000000000Creditcard charge                                 2022011320220113עוש1                          2USD+00000000016208+00000000005200+0000000000000000000000000000229000000120220224                                  
B10000000014751623267500000033860014600000014               0000000000000000107400000000000000000000000000Creditcard charge                                 2022011320220113כא1074                        1USD+00000000016208+00000000005200+0000000000000000002380000000000000000120220224                                  
B10000000014851623267500000033870014700000014               0000000000000010133500000000000000000034326000GitHub Actions                                    2022011320220116GitHub                        2USD+00000000001204+00000000000387+0000000000000000012750000000000000000120220224                                  
B10000000014951623267500000033870014800000014               0000000000000010133500000000000000000034326000GitHub Actions                                    2022011320220116אתר                           1USD+00000000001204+00000000000387+0000000000000000000000000000000000000120220224                                  
B10000000015051623267500000033880014900000014               0000000000000010133500000000000000000034326000GitHub Actions                                    2022011320220116כא1074                        2USD+00000000001204+00000000000387+0000000000000000002390000000000000000120220224                                  
B10000000015151623267500000033880015000000014               0000000000000010133500000000000000000034326000GitHub Actions                                    2022011320220116GitHub                        1USD+00000000001204+00000000000387+0000000000000000012750000000000000000120220224                                  
B10000000015251623267500000033890015100000014               0000000000000500584500000000000000000000000000Dotan Taxi                                        2022011520220115Gett                          2USD+00000000004180+00000000000000+0000000000000000012730000000000000000120220224                                  
B10000000015351623267500000033890015200000014               0000000000000500584500000000000000000000000000Dotan Taxi                                        2022011520220115נסע                           1USD+00000000004180+00000000000000+0000000000000000000000000000000000000120220224                                  
B10000000015451623267500000033900015300000014הכפ            0000000000000006003800000000000000000010006000December 2021 Enterprise Support                  2022011320220113הכנפט                         2USD+00000007792500+00000002500000+0000000000000000000000000000000000000120220224                                  
B10000000015551623267500000033900015400000014הכפ            0000000000000006003800000000000000000010006000December 2021 Enterprise Support                  2022011320220113Lance Global In               1USD+00000007792500+00000002500000+0000000000000000000000000000000000000120220224                                  
B10000000015651623267500000033910015500000014               0000000000000500584500000000000000000000000000Dotan Taxi                                        2022011520220115כא1074                        2USD+00000000004180+00000000000000+0000000000000000002420000000000000000120220224                                  
B10000000015751623267500000033910015600000014               0000000000000500584500000000000000000000000000Dotan Taxi                                        2022011520220115Gett                          1USD+00000000004180+00000000000000+0000000000000000012730000000000000000120220224                                  
B10000000015851623267500000033920015700000014               0000000000000500834300000000000000000000000000Dotan Taxi                                        2022011620220116כא1074                        2USD+00000000004350+00000000000000+0000000000000000002420000000000000000120220224                                  
B10000000015951623267500000033920015800000014               0000000000000500834300000000000000000000000000Dotan Taxi                                        2022011620220116Gett                          1USD+00000000004350+00000000000000+0000000000000000012730000000000000000120220224                                  
B10000000016051623267500000033930015900000014               0000000000000006003800000000000000000010006000December 2021 Enterprise Support                  2022011320220113Lance Global In               2USD+00000000008572+00000000002750+0000000000000000000000000000000000000120220224                                  
B10000000016151623267500000033930016000000014               0000000000000006003800000000000000000010006000December 2021 Enterprise Support                  2022011320220113עמל                           1USD+00000000008572+00000000002750+0000000000000000000000000000000000000120220224                                  
B10000000016251623267500000033940016100000014               0000000000000006003800000000000000000010006000December 2021 Enterprise Support                  2022011620220113Lance Global In               2USD+00000007783928+00000002497250+0000000000000000000000000000000000000120220224                                  
B10000000016351623267500000033940016200000014               0000000000000006003800000000000000000010006000December 2021 Enterprise Support                  2022011620220113עוש1                          1USD+00000007783928+00000002497250+0000000000000000000000000000229000000120220224                                  
B10000000016451623267500000033950016300000014               0000000000000001000600000000000000000000000000Fees for bank_reference=10006                     2022011620220116עוש                           2USD+00000000004896+00000000000000+0000000000000000000000000000220000000120220224                                  
B10000000016551623267500000033950016400000014               0000000000000001000600000000000000000000000000Fees for bank_reference=10006                     2022011620220116עמל                           1USD+00000000004896+00000000000000+0000000000000000000000000000000000000120220224                                  
B10000000016651623267500000033960016500000014               0000000000000001946300000000000000002022321000Laurin first salary - 10153.23 Euros              2022012620220126עוש1                          2USD+00000003695139+00000001163457+0000000000000000000000000000229000000120220224                                  
B10000000016751623267500000033960016600000014               0000000000000001946300000000000000002022321000Laurin first salary - 10153.23 Euros              2022012620220126Deel Germany Gm               1USD+00000003695139+00000001163457+0000000000000000012630000000000000000120220224                                  
B10000000016851623267500000033970016700000014               0000000000000000107400000000000000000000000000Creditcard charge                                 2022011620220116עוש1                          2USD+00000000001204+00000000000387+0000000000000000000000000000229000000120220224                                  
B10000000016951623267500000033970016800000014               0000000000000000107400000000000000000000000000Creditcard charge                                 2022011620220116כא1074                        1USD+00000000001204+00000000000387+0000000000000000002390000000000000000120220224                                  
B10000000017051623267500000033980016900000014               0000000000000500834300000000000000000000000000Dotan Taxi                                        2022011620220116Gett                          2USD+00000000004350+00000000000000+0000000000000000012730000000000000000120220224                                  
B10000000017151623267500000033980017000000014               0000000000000500834300000000000000000000000000Dotan Taxi                                        2022011620220116נסע                           1USD+00000000004350+00000000000000+0000000000000000000000000000000000000120220224                                  
B10000000017251623267500000033990017100000014               0000000000000008277900000000000000000000343000GitHub CI charges                                 2022011720220119כא1074                        2USD+00000000001250+00000000000400+0000000000000000002400000000000000000120220224                                  
B10000000017351623267500000033990017200000014               0000000000000008277900000000000000000000343000GitHub CI charges                                 2022011720220119GitHub                        1USD+00000000001250+00000000000400+0000000000000000012750000000000000000120220224                                  
B10000000017451623267500000034000017300000014               0000000000000008277900000000000000000000343000GitHub CI charges                                 2022011720220119GitHub                        2USD+00000000001250+00000000000400+0000000000000000012750000000000000000120220224                                  
B10000000017551623267500000034000017400000014               0000000000000008277900000000000000000000343000GitHub CI charges                                 2022011720220119אתר                           1USD+00000000001250+00000000000400+0000000000000000000000000000000000000120220224                                  
B10000000017651623267500000034010017500000014               0000000000000000107400000000000000000000000000Creditcard charge                                 2022011920220119עוש1                          2USD+00000000001250+00000000000400+0000000000000000000000000000229000000120220224                                  
B10000000017751623267500000034010017600000014               0000000000000000107400000000000000000000000000Creditcard charge                                 2022011920220119כא1074                        1USD+00000000001250+00000000000400+0000000000000000002400000000000000000120220224                                  
B10000000017851623267500000034020017700000014               0000000000000000000000000000000000000000000000Dividend 2021                                     2022012020220120עוש                           2USD+00000012000000+00000000000000+0000000000000000000000000000221000000120220224                                  
B10000000017951623267500000034020017800000014               0000000000000000000000000000000000000000000000Dividend 2021                                     2022012020220120ניבמדיב                       1USD+00000012000000+00000000000000+0000000000000000013350000000000000000120220224                                  
B10000000018051623267500000034030017900000014               0000000000000000000000000000000000000010005000                                                  2022012120220121עוש                           1USD+00000005486765+00000001750000+0000000000000000000000000000222000000120220224                                  
B10000000018151623267500000034040018000000014               0000000000000001000500000000000000000000000000                                                  2022012120220121עוש1                          2USD+00000005486765+00000001750000+0000000000000000000000000000229000000120220224                                  
B10000000018251623267500000034050018100000014               0000000000000007079600000000000000000361435000Monthly Sponsor for Yaacov and Benjie             2022012120220123GitHub                        2USD+00000000612300+00000000195000+0000000000000000012750000000000000000120220224                                  
B10000000018351623267500000034050018200000014               0000000000000007079600000000000000000361435000Monthly Sponsor for Yaacov and Benjie             2022012120220123אתר                           1USD+00000000612300+00000000195000+0000000000000000000000000000000000000120220224                                  
B10000000018451623267500000034060018300000014               0000000000000007079800000000000000000202293000Meetup Monthly charge                             2022012120220123כא1082                        2USD+00000000065940+00000000021000+0000000000000000002500000000000000000120220224                                  
B10000000018551623267500000034060018400000014               0000000000000007079800000000000000000202293000Meetup Monthly charge                             2022012120220123Meetup                        1USD+00000000065940+00000000021000+0000000000000000012950000000000000000120220224                                  
B10000000018651623267500000034070018500000014               0000000000000007079600000000000000000361435000Monthly Sponsor for Yaacov and Benjie             2022012120220123כא1082                        2USD+00000000612300+00000000195000+0000000000000000002500000000000000000120220224                                  
B10000000018751623267500000034070018600000014               0000000000000007079600000000000000000361435000Monthly Sponsor for Yaacov and Benjie             2022012120220123GitHub                        1USD+00000000612300+00000000195000+0000000000000000012750000000000000000120220224                                  
B10000000018851623267500000034080018700000014               0000000000000007079800000000000000000202293000Meetup Monthly charge                             2022012120220123Meetup                        2USD+00000000065940+00000000021000+0000000000000000012950000000000000000120220224                                  
B10000000018951623267500000034080018800000014               0000000000000007079800000000000000000202293000Meetup Monthly charge                             2022012120220123אתר                           1USD+00000000065940+00000000021000+0000000000000000000000000000000000000120220224                                  
B10000000019051623267500000034090018900000014               0000000000000000108200000000000000000000000000Creditcard charge                                 2022012320220123עוש1                          2USD+00000000678240+00000000216000+0000000000000000000000000000229000000120220224                                  
B10000000019151623267500000034090019000000014               0000000000000000108200000000000000000000000000Creditcard charge                                 2022012320220123כא1082                        1USD+00000000678240+00000000216000+0000000000000000002500000000000000000120220224                                  
B10000000019251623267500000034100019100000014               0000000000045140669800000000000000000000000000Bank creditcard fees                              2022012320220123כא1074                        2USD+00000000001560+00000000000000+0000000000000000002420000000000000000120220224                                  
B10000000019351623267500000034100019200000014               0000000000045140669800000000000000000000000000Bank creditcard fees                              2022012320220123עמל                           1USD+00000000001560+00000000000000+0000000000000000000000000000000000000120220224                                  
B10000000019451623267500000034110019300000014               0000000000000015126700000000000000500075930000Monitoring                                        2022012320220125כא1074                        2USD+00000000009231+00000000002900+0000000000000000002410000000000000000120220224                                  
B10000000019551623267500000034110019400000014               0000000000000015126700000000000000500075930000Monitoring                                        2022012320220125Sentry                        1USD+00000000009231+00000000002900+0000000000000000013110000000000000000120220224                                  
B10000000019651623267500000034120019500000014               0000000000000015126700000000000000500075930000Monitoring                                        2022012420220125Sentry                        2USD+00000000009231+00000000002900+0000000000000000013110000000000000000120220224                                  
B10000000019751623267500000034120019600000014               0000000000000015126700000000000000500075930000Monitoring                                        2022012420220125אתר                           1USD+00000000009231+00000000002900+0000000000000000000000000000000000000120220224                                  
B10000000019851623267500000034130019700000014               0000000000000000107400000000000000000000000000Creditcard charge                                 2022012520220125עוש1                          2USD+00000000009231+00000000002900+0000000000000000000000000000229000000120220224                                  
B10000000019951623267500000034130019800000014               0000000000000000107400000000000000000000000000Creditcard charge                                 2022012520220125כא1074                        1USD+00000000009231+00000000002900+0000000000000000002410000000000000000120220224                                  
B10000000020051623267500000034140019900000014               0000000000000013616500000000000000023749214000sofa-api.com domain                               2022012520220127GoDaddy                       2USD+00000000008056+00000000000000+0000000000000000012760000000000000000120220224                                  
B10000000020151623267500000034140020000000014               0000000000000013616500000000000000023749214000sofa-api.com domain                               2022012520220127אתר                           1USD+00000000008056+00000000000000+0000000000000000000000000000000000000120220224                                  
B10000000020251623267500000034150020100000014חס             0000000000000002679000000000000000000050097000New Hive and Guild designs                        2022012420220124Idan Am-Shalem                2USD+00000003369600+00000000000000+0000000000000000012860000000000000000120220224                                  
B10000000020351623267500000034150020200000014חס             0000000000000002679000000000000000000050097000New Hive and Guild designs                        2022012420220124פיתוחארץ                      1USD+00000002880000+00000000000000+0000000000000000000000000000000000000120220224                                  
B10000000020451623267500000034150020300000014חס             0000000000000002679000000000000000000050097000New Hive and Guild designs                        2022012420220124תשו                           1USD+00000000489600+00000000000000+0000000000000000002520000000000000000120220224                                  
B10000000020551623267500000034160020400000014               0000000000000013616500000000000000023749214000sofa-api.com domain                               2022012520220127כא1082                        2USD+00000000008056+00000000000000+0000000000000000002480000000000000000120220224                                  
B10000000020651623267500000034160020500000014               0000000000000013616500000000000000023749214000sofa-api.com domain                               2022012520220127GoDaddy                       1USD+00000000008056+00000000000000+0000000000000000012760000000000000000120220224                                  
B10000000020751623267500000034170020600000014               0000000000000002679000000000000000000000000000Fees for bank_reference=26790                     2022012620220126עוש                           2USD+00000000000255+00000000000000+0000000000000000000000000000223000000120220224                                  
B10000000020851623267500000034170020700000014               0000000000000002679000000000000000000000000000Fees for bank_reference=26790                     2022012620220126עמל                           1USD+00000000000255+00000000000000+0000000000000000000000000000000000000120220224                                  
B10000000020951623267500000034180020800000014               0000000000000001002900000000000000000000000000Conversion for Idan                               2022012620220126עוש1                          2USD+00000017762270+00000005590894+0000000000000000000000000000229000000120220224                                  
B10000000021051623267500000034190020900000014               0000000000000001946300000000000000002022321000Laurin first salary - 10153.23 Euro               2022012620220126Deel Germany Gm               2USD+00000003695139+00000001163457+0000000000000000012630000000000000000120220224                                  
B10000000021151623267500000034190021000000014               0000000000000001946300000000000000002022321000Laurin first salary - 10153.23 Euro               2022012620220126פיתוח                         1USD+00000003695139+00000001163457+0000000000000000000000000000000000000120220224                                  
B10000000021251623267500000034200021100000014               0000000000000000000000000000000000000010017000Flight ticket reimbursements                      2022012620220126The Graph Found               2USD+00000000825932+00000000260054+0000000000000000013730000000000000000120220224                                  
B10000000021351623267500000034200021200000014               0000000000000000000000000000000000000010017000Flight ticket reimbursements                      2022012620220126עוש1                          1USD+00000000825932+00000000260054+0000000000000000013740000000229000000120220224                                  
B10000000021451623267500000034210021300000014               0000000000000000000000000000000000000010029000Conversion for Idan                               2022012620220126עוש                           1USD+00000017762270+00000005590894+0000000000000000000000000000224000000120220224                                  
B10000000021551623267500000034220021400000014               0000000000000002679000000000000000000050097000New Hive and Guild designs                        2022012620220126עוש                           2USD+00000003369600+00000000000000+0000000000000000000000000000226000000120220224                                  
B10000000021651623267500000034220021500000014               0000000000000002679000000000000000000050097000New Hive and Guild designs                        2022012620220126Idan Am-Shalem                1USD+00000003369600+00000000000000+0000000000000000012860000000000000000120220224                                  
B10000000021751623267500000034230021600000014               0000000000000001946300000000000000000000000000Fees for bank_reference=19463                     2022012620220126עוש                           2USD+00000000009648+00000000000000+0000000000000000000000000000225000000120220224                                  
B10000000021851623267500000034230021700000014               0000000000000001946300000000000000000000000000Fees for bank_reference=19463                     2022012620220126עמל                           1USD+00000000009648+00000000000000+0000000000000000000000000000000000000120220224                                  
B10000000021951623267500000034240021800000014               0000000000000000108200000000000000000000000000Creditcard charge                                 2022012720220127עוש                           2USD+00000000008056+00000000000000+0000000000000000000000000000227000000120220224                                  
B10000000022051623267500000034240021900000014               0000000000000000108200000000000000000000000000Creditcard charge                                 2022012720220127כא1082                        1USD+00000000008056+00000000000000+0000000000000000002480000000000000000120220224                                  
B10000000022151623267500000034250022000000014               0000000000000001001700000000000000000000000000Fees for bank_reference=10017                     2022012620220126עוש                           2USD+00000000003183+00000000000000+0000000000000000000000000000225000000120220224                                  
B10000000022251623267500000034250022100000014               0000000000000001001700000000000000000000000000Fees for bank_reference=10017                     2022012620220126עמל                           1USD+00000000003183+00000000000000+0000000000000000000000000000000000000120220224                                  
B10000000022351623267500000034260022200000014               000000000000000000000000000000000000001202200001/22 הוצאות קרן השתלמות                          2022013120220131הוצקהל                        1USD+00000000352400+00000000000000+0000000000000000000000000000000000000120220224                                  
B10000000022451623267500000034270022300000014               000000000000000000000000000000000000001202200001/22 הוצאות משכורת                               2022013120220131שכע                           1USD+00000006892800+00000000000000+0000000000000000000000000000000000000120220224                                  
B10000000022551623267500000034280022400000014               000000000000000000000000000000000000001202200001/22 הוצאות ביטוח לאומי מעסיק                    2022013120220131סוצ                           1USD+00000000417700+00000000000000+0000000000000000000000000000000000000120220224                                  
B10000000022651623267500000034290022500000014               000000000000000000000000000000000000001202200001/22 פניקס אקסלנס השתלמות                        2022013120220131פניקסהש                       2USD+00000000324900+00000000000000+0000000000000000013420000000000000000120220224                                  
B10000000022751623267500000034300022600000014               000000000000000000000000000000000000001202200001/22 שמחה דותן                                   2022013120220131DotanEm                       2USD+00000001183000+00000000000000+0000000000000000000000000000000000000120220224                                  
B10000000022851623267500000034310022700000014               000000000000000000000000000000000000001202200001/22 איילון מיטב פנסיה                           2022013120220131איילוןפ                       2USD+00000000316300+00000000000000+0000000000000000013360000000000000000120220224                                  
B10000000022951623267500000034320022800000014               000000000000000000000000000000000000001202200001/22 מס הכנסה ניכויים                            2022013120220131מהני                          2USD+00000000849800+00000000000000+0000000000000000013340000000000000000120220224                                  
B10000000023051623267500000034330022900000014               0000000000000000000000000000000000000000000000פקודת מעמ 01/2022                                 2022013120220131תשו                           2USD+00000000556300+00000000000000+0000000000000000002520000000000000000120220224                                  
B10000000023151623267500000034330023000000014               0000000000000000000000000000000000000000000000פקודת מעמ 01/2022                                 2022013120220131מעמחוז                        1USD+00000000556300+00000000000000+0000000000000000007370000000000000000120220224                                  
B10000000023251623267500000034340023100000014               000000000000000000000000000000000000001202200001/22 ביטוח לאומי חו"ז                            2022013120220131בלני                          2USD+00000001027300+00000000000000+0000000000000000013690000000000000000120220224                                  
B10000000023351623267500000034350023200000014               0000000000000000000000000000000000000000000000פקודת מעמ 01/2022                                 2022013120220131ביטול                         2USD+00000000000057+00000000000000+0000000000000000000000000000000000000120220224                                  
B10000000023451623267500000034350023300000014               0000000000000000000000000000000000000000000000פקודת מעמ 01/2022                                 2022013120220131תשו                           1USD+00000000000057+00000000000000+0000000000000000002520000000000000000120220224                                  
B10000000023551623267500000034360023400000014               000000000000000000000000000000000000001202200001/22 הלמן אלדובי השתלמות                         2022013120220131פניקסהש                       2USD+00000000144900+00000000000000+0000000000000000013420000000000000000120220224                                  
B10000000023651623267500000034370023500000014               000000000000000000000000000000000000001202200001/22 גלעד תדהר                                   2022013120220131GiladEm                       2USD+00000001176700+00000000000000+0000000000000000000000000000000000000120220224                                  
B10000000023751623267500000034380023600000014               000000000000000000000000000000000000001202200001/22 שווי קהל וקיצבה זקופות-חובה                 2022013120220131הוצז                          1USD+00000000017200+00000000000000+0000000000000000000000000000000000000120220224                                  
B10000000023851623267500000034390023700000014               000000000000000000000000000000000000001202200001/22 גולדשטיין אורי                              2022013120220131UriEm                         2USD+00000001183000+00000000000000+0000000000000000000000000000000000000120220224                                  
B10000000023951623267500000034400023800000014               000000000000000000000000000000000000001202200001/22 מנורה מבטחים פנסיה                          2022013120220131מנורהפנ                       2USD+00000000392900+00000000000000+0000000000000000013410000000000000000120220224                                  
B10000000024051623267500000034410023900000014               000000000000000000000000000000000000001202200001/22 שווי קהל וקיצבה זקופות-זכות                 2022013120220131זקופות                        2USD+00000000017200+00000000000000+0000000000000000000000000000000000000120220224                                  
B10000000024151623267500000034420024000000014               000000000000000000000000000000000000001202200001/22 גיל גרדוש                                   2022013120220131GilEm                         2USD+00000001473500+00000000000000+0000000000000000000000000000000000000120220224                                  
B10000000024251623267500000034430024100000014               000000000000000000000000000000000000001202200001/22 הוצאות גמל פיצויים                          2022013120220131הוצגמל                        1USD+00000000391300+00000000000000+0000000000000000000000000000000000000120220224                                  
B10000000024351623267500000034440024200000014               000000000000000000000000000000000000001202200001/22 הוצאות גמל                                  2022013120220131הוצגמל                        1USD+00000000334400+00000000000000+0000000000000000000000000000000000000120220224                                  
B10000000024451623267500000034450024300000014               000000000000000000000000000000000000001202200001/22 הלמן אלדובי פנסיה                           2022013120220131איילוןפ                       2USD+00000000316300+00000000000000+0000000000000000013360000000000000000120220224                                  
B10000000024551623267500000034460024400000014הכפ            0000000000000005000200000000000000000010040000First contract for 3 months                       2022011020220107הכנפט                         2GBP+00000147409500+00000035000000+0000000000000000000000000000000000000120220224                                  
B10000000024651623267500000034460024500000014הכפ            0000000000000005000200000000000000000010040000First contract for 3 months                       2022011020220107Marks and Spenc               1GBP+00000147409500+00000035000000+0000000000000000000000000000000000000120220224                                  
B10000000024751623267500000034470024600000014               0000000000000005000200000000000000000010040000First contract for 3 months                       2022011020220201שער                           2USD+00000002240000+00000000000000+0000000000000000000000000000000000000120220224                                  
B10000000024851623267500000034470024700000014               0000000000000005000200000000000000000010040000First contract for 3 months                       2022011020220201Marks and Spenc               1USD+00000002240000+00000000000000+0000000000000000000000000000000000000120220224                                  
B10000000024951623267500000034480024800000014               0000000000000005000200000000000000000010040000First contract for 3 months                       2022020220220201Marks and Spenc               2GBP+00000149649500+00000035000000+0000000000000000000000000000000000000120220224                                  
B10000000025051623267500000034480024900000014               0000000000000005000200000000000000000010040000First contract for 3 months                       2022020220220201עוש3                          1GBP+00000149649500+00000035000000+0000000000000000000000000000231000000120220224                                  
B10000000025151623267500000034490025000000014               0000000000000000107400000000000000000000000000Creditcard charge                                 2022020220220202עוש                           2USD+00000000024053+00000000000000+0000000000000000000000000000228000000120220224                                  
B10000000025251623267500000034490025100000014               0000000000000000107400000000000000000000000000Creditcard charge                                 2022020220220202כא1074                        1USD+00000000024053+00000000000000+0000000000000000002420000000000000000120220224                                  
B10000000025351623267500000034500025200000014               0000000000000000108200000000000000000000000000Creditcard charge                                 2022020220220202עוש                           2USD+00000000011799+00000000000000+0000000000000000000000000000228000000120220224                                  
B10000000025451623267500000034500025300000014               0000000000000000108200000000000000000000000000Creditcard charge                                 2022020220220202כא1082                        1USD+00000000011799+00000000000000+0000000000000000002490000000000000000120220224                                  
B10000000025551623267500000035170025400000019חס             0000000000000013443500000000000000008357786000Salary software                                   2022020120220201Tamal                         2???+00000000021938+00000000000000+0000000000000000013150000000000000000120230521                                  
B10000000025651623267500000035170025500000019חס             0000000000000013443500000000000000008357786000Salary software                                   2022020120220201אחזקה                         1???+00000000018750+00000000000000+0000000000000000000000000000000000000120230521                                  
B10000000025751623267500000035170025600000019חס             0000000000000013443500000000000000008357786000Salary software                                   2022020120220201תשו                           1???+00000000003188+00000000000000+0000000000000000008680000000000000000120230521                                  
B10000000025851623267500000035190025700000019               0000000000000994352500000000000000000858621000Green Invoice Monthly Charge                      2022020120220201כא1074                        2???+00000000004563+00000000000000+0000000000000000007730000000000000000120230521                                  
B10000000025951623267500000035190025800000019               0000000000000994352500000000000000000858621000Green Invoice Monthly Charge                      2022020120220201Green Invoice                 1???+00000000004563+00000000000000+0000000000000000012800000000000000000120230521                                  
B10000000026051623267500000035200025900000019חס             0000000000000994352500000000000000000858621000Green Invoice Monthly Charge                      2022020120220201Green Invoice                 2???+00000000004563+00000000000000+0000000000000000012800000000000000000120230521                                  
B10000000026151623267500000035200026000000019חס             0000000000000994352500000000000000000858621000Green Invoice Monthly Charge                      2022020120220201אחזקה                         1???+00000000003900+00000000000000+0000000000000000000000000000000000000120230521                                  
B10000000026251623267500000035200026100000019חס             0000000000000994352500000000000000000858621000Green Invoice Monthly Charge                      2022020120220201תשו                           1???+00000000000663+00000000000000+0000000000000000008680000000000000000120230521                                  
B10000000026351623267500000035210026200000019               0000000000000013443500000000000000008357786000Salary software                                   2022020120220201כא1082                        2???+00000000021938+00000000000000+0000000000000000007630000000000000000120230521                                  
B10000000026451623267500000035210026300000019               0000000000000013443500000000000000008357786000Salary software                                   2022020120220201Tamal                         1???+00000000021938+00000000000000+0000000000000000013150000000000000000120230521                                  
B10000000026551623267500000035220026400000019               0000000000000010523700000000000000392760006000Infrastructure Hosting                            2022020120220203Pulumi Comporat               2USD+00000000003043+00000000000955+0000000000000000013050000000000000000120230521                                  
B10000000026651623267500000035220026500000019               0000000000000010523700000000000000392760006000Infrastructure Hosting                            2022020120220203אתר                           1USD+00000000003043+00000000000955+0000000000000000000000000000000000000120230521                                  
B10000000026751623267500000035230026600000019               0000000000000018561700000000000000314100010000Hosting                                           2022020120220203Render                        1USD+00000000004460+00000000001400+0000000000000000013080000000000000000120230521                                  
B10000000026851623267500000035230026700000019               0000000000000018561700000000000000314100010000Hosting                                           2022020120220203כא1074                        2USD+00000000004460+00000000001400+0000000000000000007650000000000000000120230521                                  
B10000000026951623267500000035240026800000019               0000000000000010494900000000000000001869461000Slack                                             2022020120220203Slack                         2USD+00000000049084+00000000015406+0000000000000000013120000000000000000120230521                                  
B10000000027051623267500000035240026900000019               0000000000000010494900000000000000001869461000Slack                                             2022020120220203אתר                           1USD+00000000049084+00000000015406+0000000000000000000000000000000000000120230521                                  
B10000000027151623267500000035250027000000019               0000000000000010399200000000000000059073651000G Suite for The Guild                             2022020120220203כא1074                        2EUR+00000000003256+00000000000905+0000000000000000007640000000000000000120230521                                  
B10000000027251623267500000035250027100000019               0000000000000010399200000000000000059073651000G Suite for The Guild                             2022020120220203Google Ireland                1EUR+00000000003256+00000000000905+0000000000000000012780000000000000000120230521                                  
B10000000027351623267500000035260027200000019               0000000000000010494900000000000000001869461000Slack                                             2022020120220203כא1082                        2USD+00000000049084+00000000015406+0000000000000000007630000000000000000120230521                                  
B10000000027451623267500000035260027300000019               0000000000000010494900000000000000001869461000Slack                                             2022020120220203Slack                         1USD+00000000049084+00000000015406+0000000000000000013120000000000000000120230521                                  
B10000000027551623267500000035270027400000019               0000000000000010519600000000000000000003005000Infrastructure                                    2022020120220203כא1074                        2USD+00000000081925+00000000025714+0000000000000000007650000000000000000120230521                                  
B10000000027651623267500000035270027500000019               0000000000000010519600000000000000000003005000Infrastructure                                    2022020120220203Microsoft Azure               1USD+00000000081925+00000000025714+0000000000000000012980000000000000000120230521                                  
B10000000027751623267500000035280027600000019               0000000000000010523700000000000000392760006000Infrastructure Hosting                            2022020120220203Pulumi Comporat               1USD+00000000003043+00000000000955+0000000000000000013050000000000000000120230521                                  
B10000000027851623267500000035280027700000019               0000000000000010523700000000000000392760006000Infrastructure Hosting                            2022020120220203כא1074                        2USD+00000000003043+00000000000955+0000000000000000007650000000000000000120230521                                  
B10000000027951623267500000035290027800000019               0000000000000018561700000000000000314100010000Hosting                                           2022020120220203Render                        2USD+00000000004460+00000000001400+0000000000000000013080000000000000000120230521                                  
B10000000028051623267500000035290027900000019               0000000000000018561700000000000000314100010000Hosting                                           2022020120220203אתר                           1USD+00000000004460+00000000001400+0000000000000000000000000000000000000120230521                                  
B10000000028151623267500000035310028000000019               0000000000000000107400000000000000000000000000Creditcard charge                                 2022020320220203עוש1                          2USD+00000000089428+00000000028069+0000000000000000000000000000775000000120230521                                  
B10000000028251623267500000035310028100000019               0000000000000000107400000000000000000000000000Creditcard charge                                 2022020320220203כא1074                        1USD+00000000089428+00000000028069+0000000000000000007650000000000000000120230521                                  
B10000000028351623267500000035320028200000019               0000000000000000108200000000000000000000000000Creditcard charge                                 2022020320220203כא1082                        1USD+00000000049084+00000000015406+0000000000000000007630000000000000000120230521                                  
B10000000028451623267500000035320028300000019               0000000000000000108200000000000000000000000000Creditcard charge                                 2022020320220203עוש1                          2USD+00000000049084+00000000015406+0000000000000000000000000000776000000120230521                                  
B10000000028551623267500000035350028400000019               0000000000000000107400000000000000000000000000Creditcard charge                                 2022020320220203עוש2                          2EUR+00000000003256+00000000000905+0000000000000000000000000000739000000120230521                                  
B10000000028651623267500000035350028500000019               0000000000000000107400000000000000000000000000Creditcard charge                                 2022020320220203כא1074                        1EUR+00000000003256+00000000000905+0000000000000000007640000000000000000120230521                                  
B10000000028751623267500000035360028600000019               0000000000000016177900000000000000509510010000Vercel Hosting                                    2022020320220206כא1082                        2USD+00000000051184+00000000016000+0000000000000000007630000000000000000120230521                                  
B10000000028851623267500000035360028700000019               0000000000000016177900000000000000509510010000Vercel Hosting                                    2022020320220206Vercel Inc.                   1USD+00000000051184+00000000016000+0000000000000000013200000000000000000120230521                                  
B10000000028951623267500000035370028800000019               0000000000000016177900000000000000509510010000Vercel Hosting                                    2022020320220206Vercel Inc.                   2USD+00000000051184+00000000016000+0000000000000000013200000000000000000120230521                                  
B10000000029051623267500000035370028900000019               0000000000000016177900000000000000509510010000Vercel Hosting                                    2022020320220206אתר                           1USD+00000000051184+00000000016000+0000000000000000000000000000000000000120230521                                  
B10000000029151623267500000035380029000000019               0000000000000001975100000000000000000000005000January 2022                                      2022020220220202פיתוח                         1USD+00000001181050+00000000373750+0000000000000000000000000000000000000120230521                                  
B10000000029251623267500000035380029100000019               0000000000000001975100000000000000000000005000January 2022                                      2022020220220202Saihajpreet Sin               2USD+00000001181050+00000000373750+0000000000000000013100000000000000000120230521                                  
B10000000029351623267500000035390029200000019               0000000000000001975100000000000000000000005000January 2022                                      2022020220220204שער                           2???-00000000014576+00000000000000+0000000000000000000000000000000000000120230521                                  
B10000000029451623267500000035390029300000019               0000000000000001975100000000000000000000005000January 2022                                      2022020220220204Saihajpreet Sin               1???-00000000014576+00000000000000+0000000000000000013100000000000000000120230521                                  
B10000000029551623267500000035400029400000019               0000000000000001975100000000000000000000005000January 2022                                      2022020420220204עוש1                          2USD+00000001195626+00000000393550+0000000000000000000000000000777000000120230521                                  
B10000000029651623267500000035400029500000019               0000000000000001975100000000000000000000005000January 2022                                      2022020420220204Saihajpreet Sin               1USD+00000001195626+00000000393550+0000000000000000013100000000000000000120230521                                  
B10000000029751623267500000035420029600000019               0000000000000007172700000000000000000201075000Monthly Crisp                                     2022020420220206כא1074                        2USD+00000000021273+00000000006650+0000000000000000007670000000000000000120230521                                  
B10000000029851623267500000035420029700000019               0000000000000007172700000000000000000201075000Monthly Crisp                                     2022020420220206Crisp IM SARL                 1USD+00000000021273+00000000006650+0000000000000000012620000000000000000120230521                                  
B10000000029951623267500000035430029800000019               0000000000000007172700000000000000000201075000Monthly Crisp                                     2022020420220206Crisp IM SARL                 2USD+00000000021273+00000000006650+0000000000000000012620000000000000000120230521                                  
B10000000030051623267500000035430029900000019               0000000000000007172700000000000000000201075000Monthly Crisp                                     2022020420220206אתר                           1USD+00000000021273+00000000006650+0000000000000000000000000000000000000120230521                                  
B10000000030151623267500000035440030000000019               0000000000000007186300000000000000220100031000ALTINITY DB Hosting                               2022020420220206כא1074                        2USD+00000000141031+00000000044086+0000000000000000007670000000000000000120230521                                  
B10000000030251623267500000035440030100000019               0000000000000007186300000000000000220100031000ALTINITY DB Hosting                               2022020420220206Altinity Inc                  1USD+00000000141031+00000000044086+0000000000000000009280000000000000000120230521                                  
B10000000030351623267500000035450030200000019               0000000000000000107400000000000000000000000000Creditcard charge                                 2022020620220206עוש1                          2USD+00000000162304+00000000050736+0000000000000000000000000000778000000120230521                                  
B10000000030451623267500000035450030300000019               0000000000000000107400000000000000000000000000Creditcard charge                                 2022020620220206כא1074                        1USD+00000000162304+00000000050736+0000000000000000007670000000000000000120230521                                  
B10000000030551623267500000035460030400000019               0000000000000000108200000000000000000000000000Creditcard charge                                 2022020620220206עוש1                          2USD+00000000051184+00000000016000+0000000000000000000000000000779000000120230521                                  
B10000000030651623267500000035460030500000019               0000000000000000108200000000000000000000000000Creditcard charge                                 2022020620220206כא1082                        1USD+00000000051184+00000000016000+0000000000000000007630000000000000000120230521                                  
B10000000030751623267500000035470030600000019               0000000000000019426200000000000000000247696000Grafana Cloud                                     2022020620220208Raintank Inc db               2USD+00000000012977+00000000004025+0000000000000000013060000000000000000120230521                                  
B10000000030851623267500000035470030700000019               0000000000000019426200000000000000000247696000Grafana Cloud                                     2022020620220208אתר                           1USD+00000000012977+00000000004025+0000000000000000000000000000000000000120230521                                  
B10000000030951623267500000035480030800000019               0000000000000019426200000000000000000247696000Grafana Cloud                                     2022020620220208כא1074                        2USD+00000000012977+00000000004025+0000000000000000007660000000000000000120230521                                  
B10000000031051623267500000035480030900000019               0000000000000019426200000000000000000247696000Grafana Cloud                                     2022020620220208Raintank Inc db               1USD+00000000012977+00000000004025+0000000000000000013060000000000000000120230521                                  
B10000000031151623267500000035490031000000019               0000000000000007430000000000000000000000119000Notion monthly charge                             2022020720220209Notion Labs, In               1USD+00000000054466+00000000016936+0000000000000000013000000000000000000120230521                                  
B10000000031251623267500000035490031100000019               0000000000000007430000000000000000000000119000Notion monthly charge                             2022020720220209כא1082                        2USD+00000000054466+00000000016936+0000000000000000007630000000000000000120230521                                  
B10000000031351623267500000035500031200000019               0000000000000007430000000000000000000000119000Notion monthly charge                             2022020720220209אתר                           1USD+00000000054466+00000000016936+0000000000000000000000000000000000000120230521                                  
B10000000031451623267500000035500031300000019               0000000000000007430000000000000000000000119000Notion monthly charge                             2022020720220209Notion Labs, In               2USD+00000000054466+00000000016936+0000000000000000013000000000000000000120230521                                  
